:020000040800F2
:10000000100B00203D2C0008212C0008232C000898
:10001000272C00082B2C00082F2C000800000000C3
:10002000000000000000000000000000332C000869
:10003000352C000800000000372C0008392C00087F
:10004000572C0008572C0008572C0008572C000884
:10005000572C0008572C0008730F00089B0F00084E
:10006000572C0008C30F0008EB0F0008572C00089E
:10007000572C0008572C0008572C0008572C000854
:10008000572C0008572C0008572C0008572C000844
:10009000572C0008572C0008572C00081310000894
:1000A000572C0008572C0008572C0008572C000824
:1000B000A75E0008572C0008572C0008572C000892
:1000C000572C0008572C0008572C0008572C000804
:1000D000572C0008572C0008572C0008572C0008F4
:1000E000572C0008572C0008572C0008572C0008E4
:1000F000572C0008572C0008572C0008572C0008D4
:10010000572C0008572C0008572C0008572C0008C3
:10011000F15D0008572C0008572C0008572C0008E8
:10012000572C0008572C0008572C0008572C0008A3
:10013000572C0008572C0008572C0008572C000893
:10014000572C0008572C0008572C0008572C000883
:10015000572C0008572C0008572C0008572C000873
:10016000572C0008572C0008572C0008572C000863
:10017000572C0008572C0008572C0008572C000853
:10018000572C0008572C0008DFF80CD009F034F881
:1001900000480047FF200008100B002010B5ED4874
:1001A0000268ED480168EDA009F026FA10BD10B50F
:1001B000E8480268E8480168F1A009F01DFA10BD9E
:1001C00010B5F9A009F018FA10BD70B504460D4637
:1001D0002A462146F8A009F00FFA70BD2DE9F04338
:1001E0002DED108B93B004460D4616461F46B0EE1B
:1001F000408AF0EE608AB0EE419AF0EE619AB0EE7D
:1002000042FADDE92A891FEE100A08F02DFD41ECC3
:100210001A0B19EE900A08F027FD41EC1B0B19EEA2
:10022000100A08F021FD41EC1C0B18EE900A08F0B2
:100230001BFD41EC1D0B18EE100A08F015FD41ECFA
:100240001E0B8DED10ABCDF838908DED0CBBCDF8BD
:1002500028808DED08CB06978DED04DB02968DEDA1
:1002600000EB2A462146DC4809F0C6F913B0BDEC84
:10027000108BBDE8F08310B504462146D7A009F0E5
:10028000BBF910BD10B5DEA009F0B6F910BD70B510
:1002900004460025002605E0605D30380A2106FB93
:1002A00001066D1C08F01CFA0068615D405C2028A6
:1002B000F2D0304670BD2DE9F04796B081464846F1
:1002C00004F059FD05461DB9002016B0BDE8F087C1
:1002D000D3A1284604F0E1FF064637690422D1A1E4
:1002E000384608F057FA60B9D0A1284604F0D5FF87
:1002F00004692346102240F213116A2003F0B5FB73
:1003000000BF0722CAA1384608F044FA30B9CBA38F
:10031000102240F213110A2003F0A7FB0722C8A104
:10032000384608F037FA38B9FFF741FF4FF4FA7052
:1003300008F0B6F9FFF732FF0922C3A1384608F0EA
:1003400029FA38B9FFF733FF4FF4FA7008F0A8F92B
:10035000FFF724FF0522BFA1384608F01BFA00284A
:1003600023D1BEA1284604F098FF04692422BCA131
:10037000684608F0CDF969462046FFF726FFC1A37D
:10038000102240F223110A2003F06FFB23461022B3
:1003900040F223110A2003F068FBBFA3102240F2B1
:1003A00023113C2003F061FB00BF0622BEA13846AA
:1003B00008F0F0F9D0B9A9A1284604F06EFF04694D
:1003C000BBA3102240F223110A2003F04EFB234668
:1003D000102240F223110A2003F047FBB9A3102298
:1003E00040F223113C2003F040FB00BF0322BAA1DE
:1003F000384608F0CFF9002870D105F051FDB74913
:100400000968401A0A2869D9B5A1284604F045FFB1
:10041000D0F8108091A1284604F03FFFD0F810A03A
:1004200005F03EFDAD490860AEA3102240F2231155
:100430000A2003F01AFB4346102240F223110A203F
:1004400003F013FB0422ADA1404608F0A3F960B904
:100450001822ACA103A808F05BF903A95046FFF7E6
:10046000B4FE0120AD49087062E20422ACA140460E
:1004700008F090F960B91822ABA103A808F048F978
:1004800003A95046FFF7A1FE0220A4490870EBE73C
:100490000422ABA1404608F07DF960B91822AAA158
:1004A00003A808F035F903A95046FFF78EFE032094
:1004B0009A490870D8E70422A9A1404608F06AF9D1
:1004C00068B91822A8A103A808F022F903A9504688
:1004D000FFF77BFE042091490870C5E77EE3042204
:1004E000A7A1404608F056F960B91822A6A103A8B2
:1004F00008F00EF903A95046FFF767FE052087496B
:100500000870B1E70622A6A1404608F043F960B999
:100510001C22A5A102A808F0FBF802A95046FFF78B
:1005200054FE06207D4908709EE70522A5A140469D
:1005300008F030F960B91822A4A103A808F0E8F87F
:1005400003A95046FFF741FE0720744908708BE766
:1005500048E1000078000020740000207B224D223A
:100560003A22636865636B696E222C224944223A01
:10057000222573222C224B223A222573227D0A0047
:100580007B224D223A22636865636B6F7574222C5F
:10059000224944223A222573222C224B223A222538
:1005A00073227D0A000000007B224D223A227374E0
:1005B00061747573227D0A007B224D223A22736199
:1005C00079222C224944223A222573222C224322CA
:1005D0003A222573227D0A00A8C300087B224D22FF
:1005E0003A22616C657274222C224944223A2231EB
:1005F000343736222C2243223A222573227D0A00E8
:100600007B224D223A2274696D65222C2246223AC1
:1006100022592D6D2D6420483A69227D0A00000080
:100620004D00000074696D6500000000540000007A
:10063000636865636B696E6F6B0000002D3E0000A0
:1006400057454C434F4D4500636F6E6E656374654F
:10065000640000006C6F67696E0000004944000090
:100660004465617220667269656E642C2077656CE2
:10067000636F6D6520746F20424947494F542021B4
:1006800000000000202020202020202020202020EA
:100690002020202020000000697320636F6E6E65AB
:1006A0006374696F6E0000006C6F676F7574000093
:1006B000202020202020202020202020202020203A
:1006C000202000006973206C6F676F7574202020F4
:1006D000202020202020200073617900600000206D
:1006E0004300000020202020202020202020202047
:1006F000202020202020202000000000667265318C
:1007000000000000656E74657220746865206E7567
:100710006D62657220746F2031233A0090000020D2
:100720006672653200000000656E74657220746840
:1007300065206E756D62657220746F2032233A00F9
:100740006672653300000000656E7465722074681F
:1007500065206E756D62657220746F2033233A00D8
:100760006672653400000000656E746572207468FE
:1007700065206E756D62657220746F2034233A00B7
:100780006672653500000000656E746572207468DD
:1007900065206E756D62657220746F2035233A0096
:1007A000667265616C6C0000656E746572207468B9
:1007B00065206E756D62657220746F20312D352352
:1007C0003A000000616C61726D000000656E746536
:1007D000722074686520616C61726D2076616C7541
:1007E000653A0000FE48007800287DD04046FFF7BB
:1007F0004EFD044624B9FBA15046FFF7E6FC94E009
:10080000F7480078082870D2DFE800F08D04111E48
:100810002B38458AF7480460F7A10268F74808F0CA
:10082000FBFE0622F549002005F09AFC7CE0F44826
:100830000460F1A10268F14808F0EEFE0622EF49DB
:10084000082005F08DFC6FE0EE480460EAA1026824
:10085000EA4808F0E1FE0622E849102005F080FC95
:1008600062E0E9480460E4A10268E44808F0D4FECC
:100870000622E249182005F073FC55E0E3480460C5
:10088000DDA10268DD4808F0C7FE0622DB49202012
:1008900005F066FC48E0D7480460D9480460D948B0
:1008A0000460D9480460D9480460D248D2A10268E3
:1008B000D24808F0B1FE0622D049002005F050FCD5
:1008C000CF48CDA10268CD4808F0A6FE0622CB494C
:1008D000082005F045FCCB48C7A10268C74808F0CE
:1008E0009BFE0622C54901E023E01CE0102005F034
:1008F00037FCC548C0A10268C04808F08DFE06223A
:10090000BE49182005F02CFCC048BBA10268BB48BA
:1009100008F082FE0622B949202005F021FC03E000
:10092000BB490C8000E000BF00BF0020AC4908704C
:100930000AE30522B7A1404607F02CFF50B9012079
:10094000B64908600020B6490870B6A15046FFF7C6
:100950003CFCF9E20522B6A1404607F01BFF50B966
:100960000120B54908600020B4490870B4A1504680
:10097000FFF72BFCE8E20522B4A1404607F00AFF8E
:1009800058B90120AC49091D08600020B149087020
:10099000B1A15046FFF719FCD6E20522B1A14046AD
:1009A00007F0F8FE58B90120A3490831086000207B
:1009B000AE490870AEA15046FFF707FCC4E205221D
:1009C000AEA1404607F0E6FE50B90120AD490860EF
:1009D0000020AD490870ADA15046FFF7F6FBB3E229
:1009E0000622ADA1404607F0D5FE50B900208B4944
:1009F000086001208A490870A9A15046FFF7E5FB6D
:100A0000A2E20622A9A1404607F0C4FE50B9002088
:100A100089490860012089490870A6A15046FFF75E
:100A2000D4FB91E20622A6A1404607F0B3FE58B9D6
:100A300000208149091D0860012086490870A2A193
:100A40005046FFF7C2FB7FE20622A2A1404607F014
:100A5000A1FE58B900207849083108600120834977
:100A600008709EA15046FFF7B0FB6DE206229EA1E2
:100A7000404607F08FFE50B90020824908600120EF
:100A8000814908709AA15046FFF79FFB5CE207225C
:100A90009AA1404607F07EFEE0B901205F49086058
:100AA0009849C1F8AC026449091D0860091D086035
:100AB0007449086000205A49087060490870654907
:100AC00008706A490870704908708FA15046FFF796
:100AD0007CFB39E208228FA1404607F05BFEE0B9BB
:100AE00000204E4908608749C1F8AC025249091DEF
:100AF0000860091D086063490860012048490870C2
:100B00004E49087053490870584908705E4908708A
:100B100083A15046FFF759FB16E2022283A140460B
:100B200007F038FE90BB8248006882490968CDE929
:100B300000108148008800EE100AB8EE402A7F4875
:100B4000008800EE100AF8EE401A7D48008800EE9A
:100B5000100AB8EE401A7B4803687B48008800EE14
:100B6000100AF8EE400A794802687948008800EED9
:100B7000100AB8EE400A7748016877480068FFF726
:100B80002DFB05F08DF975490860DDE1FFE70222D4
:100B900073A1404607F0FEFDF8B9164816A1026899
:100BA000164808F039FD06221449002005F0D8FA4D
:100BB000134811A10268114808F02EFD06220F49C2
:100BC000082005F0CDFA0F480BA102680B4808F089
:100BD00023FD062209491020C6E0E0E0B5E100004F
:100BE00090000020496E707574204572726F7221FA
:100BF000212100003C00002025640000910000201D
:100C00004000002044000020480000204C0000204C
:100C10003A0000206F70656E31000000BC824242D5
:100C2000020000203123206973206F70656E000080
:100C30006F70656E32000000AC82414203000020FC
:100C40003223206973206F70656E00006F70656ECF
:100C500033000000040000203323206973206F70EC
:100C6000656E00006F70656E3400000005000020A6
:100C70003423206973206F70656E00006F70656E9D
:100C8000350000009C024042060000203523206908
:100C900073206F70656E0000636C6F7365310000C8
:100CA000312320697320636C6F736500636C6F730D
:100CB00065320000322320697320636C6F73650016
:100CC000636C6F7365330000332320697320636C9A
:100CD0006F736500636C6F736534000034232069A3
:100CE0007320636C6F736500636C6F736535000010
:100CF000352320697320636C6F7365006F70656EB8
:100D0000616C6C0000804142416C6C206F70656EBC
:100D100000000000636C6F7365616C6C0000000084
:100D2000416C6C20636C6F73650000007378000089
:100D30008C000020880000201A00002018000020ED
:100D400016000020840000201400002080000020F5
:100D5000120000207C0000207400002058000020B9
:100D6000736176650000000005F0FAF9F748AFF20C
:100D700078110268F64808F04FFC0622F449182062
:100D800005F0EEF9F348AFF290110268F04808F070
:100D900043FC0622EE49202005F0E2F9D4E00522CA
:100DA000EDA1404607F0F6FC002879D10622ECA11F
:100DB00005F0D6F90622EAA1082005F0D1F90622AD
:100DC000E7A1102005F0CCF90622E5A1182005F0D6
:100DD000C7F90622E2A1202005F0C2F90020E2496D
:100DE0000860E2490860E2490860D8490860D949CA
:100DF000086042F6FF004FF6FF7100221823CDE98C
:100E00000032CDE902100623D7481A210268942047
:100E100002F0F5FE42F6FF004FF6FF7100221823A4
:100E2000CDE90032CDE902100623D0484C210268FA
:100E3000942002F0E4FE42F6FF004FF6FF7100221C
:100E40001823CDE90032CDE902100623C8487E21DF
:100E50000268942002F0D3FE42F6FF004FF6FF71C5
:100E600000221823CDE90032CDE902100623B7484D
:100E7000B0210268942002F0C2FE42F6FF004FF655
:100E8000FF7100221823CDE90032CDE902100623BC
:100E9000B048E2210268942002F0B1FE54E0FFE77E
:100EA0000222B4A1404607F075FCA8B9A948006821
:100EB000A6490968AE4A1268CDE900210290AB4804
:100EC0000368A948ACA1026809A808F0A5FB09A914
:100ED0005046FFF77AF937E00522AFA1404607F008
:100EE00059FC38B90020AE490860AEA15046FFF762
:100EF0006CF929E00422B1A1404607F04BFC38B957
:100F00000120A7490860AFA15046FFF75EF91BE03A
:100F10000222AFF27071404607F03CFCA0B9AE4827
:100F20000088AE490988AE4A1288CDE900210290B6
:100F3000AC480388AC4802888FA109A808F06CFB74
:100F400009A95046FFF741F900BF15B1284603F043
:100F500089F80120FFF7B9B910B504F0F0FE4FF49D
:100F6000E13004F08DFE42F2CF01092004F065FF6C
:100F700010BD10B5012006F075FB38B19B48006824
:100F800020B99B480088401C99490880012006F040
:100F900065FB012006F071FB10BD10B5022006F0C4
:100FA00061FB38B19148006820B992480088401C24
:100FB00090490880022006F051FB022006F05DFBFC
:100FC00010BD10B5082006F04DFB38B18748006809
:100FD00020B989480088401C87490880082006F00D
:100FE0003DFB082006F049FB10BD10B5102006F0AF
:100FF00039FB38B17D48006820B980480088401C22
:101000007E490880102006F029FB102006F035FBF1
:1010100010BD10B5202006F025FB38B173480068DC
:1010200020B977480088401C75490880202006F0C8
:1010300015FB202006F021FB10BD1CB5012140202E
:1010400005F01EFF3B20009000208DF804000320D7
:101050008DF8050001208DF807006946694805F004
:1010600071FC1CBD0EB5FFF7E8FF0121880305F0F8
:1010700061FF0021062007F06CF90121062007F02E
:1010800068F90321062007F064F90421062007F01F
:1010900060F90521062007F05CF93B200090002054
:1010A0008DF804000C208DF8050001208DF8060055
:1010B000684606F071FA06208DF8080005208DF8C4
:1010C000090002208DF80A0001208DF80B0002A80B
:1010D00005F063F807208DF8080004208DF809005A
:1010E00002208DF80A0001208DF80B0002A805F0FF
:1010F00054F809208DF8080003208DF8090002201B
:101100008DF80A0001208DF80B0002A805F045F8C3
:101110000A208DF8080002208DF809008DF80A00D9
:1011200001208DF80B0002A805F037F817208DF884
:10113000080001208DF8090002208DF80A00012026
:101140008DF80B0002A805F028F80EBD480000201D
:10115000910000204C000020636C6561720000006B
:1011600030303030303000003C00002040000020A3
:10117000440000206378000046313A25642D463251
:101180003A25642D46333A25642D46343A25642D9C
:1011900046353A256400000062676F66660000000D
:1011A000A88242424261636B67726F756E64204C25
:1011B00069676874204F46460000000062676F6EE2
:1011C000000000004261636B67726F756E64204CB3
:1011D00069676874204F4E001A0000201800002034
:1011E00016000020140000201200002014024142CA
:1011F000080000200A0000200C0000200E00002043
:1012000010000020001802401FB500204FF6FF73A9
:10121000024601460090182002F053FD00204FF6D0
:10122000FF73012201460090302002F04AFD0020A9
:101230004FF6FF73022201460090482002F041FD64
:1012400000204FF6FF73032201460090602002F059
:1012500038FD00204FF6FF730422014600907820ED
:1012600002F02FFD00204FF6FF730522014600908B
:10127000902002F026FD00204FF6FF730622014663
:101280000090A82002F01DFD00204FF6FF730722FA
:1012900001460090C02002F014FD42F6FF004A23F0
:1012A000EF221A210090002002F020FB00203223C0
:1012B000EF22194600904A2002F018FB42F6FF0088
:1012C0007C23EF224C210090002002F00FFB002035
:1012D0006423EF22194600904A2002F007FB42F6F1
:1012E000FF00AE23EF227E210090002002F0FEFAE4
:1012F00000209623EF22194600904A2002F0F6FAC9
:1013000042F6FF00E023EF22B0210090002002F01F
:10131000EDFA0020C823EF22194600904A2002F07F
:10132000E5FA42F6FF004FF48973EF22E2210090C4
:10133000002002F0DBFA0020FA23EF221946009089
:101340004A2002F0D3FA00204FF489734A22182170
:101350000090104602F0CAFA42F6FF004FF6FF7105
:1013600000221823CDE90032CDE9021001231A46EC
:101370001A210C2002F043FC42F6FF004FF6FF71E9
:1013800000221823CDE90032CDE902100123022208
:101390004C210C2002F033FC42F6FF004FF6FF71A7
:1013A00000221823CDE90032CDE9021001230322E7
:1013B0007E210C2002F023FC42F6FF004FF6FF7165
:1013C00000221823CDE90032CDE9021001230422C6
:1013D000B0210C2002F013FC42F6FF004FF6FF7123
:1013E00000221823CDE90032CDE9021001230522A5
:1013F000E2210C2002F003FC42F6FF004FF6FF73DF
:1014000008221A210090242002F05BFC42F6FF0023
:101410004FF6FF7308224C210090242002F051FC6B
:1014200042F6FF004FF6FF7308227E210090242031
:1014300002F047FC42F6FF004FF6FF730822B0218E
:101440000090242002F03DFC42F6FF004FF6FF73AF
:101450000822E2210090242002F033FC42F6FF0033
:101460004FF6FF71FEA30C22CDE9001033210420BA
:1014700002F01BFB42F6FF004FF6FF71FAA30C22AD
:10148000CDE900103F21042002F00FFB42F6FF00DF
:101490004FF6FF71F2A30C22CDE900106521042064
:1014A00002F003FB42F6FF004FF6FF71EEA30C22A1
:1014B000CDE900107121042002F0F7FA42F6FF0096
:1014C0004FF6FF71E6A30C22CDE90010972104200E
:1014D00002F0EBFA42F6FF004FF6FF71E2A30C2296
:1014E000CDE90010A321042002F0DFFA42F6FF004C
:1014F0004FF6FF71DAA30C22CDE90010C9210420B8
:1015000002F0D3FA42F6FF004FF6FF71D6A30C2289
:10151000CDE90010D521042002F0C7FA42F6FF0001
:101520004FF6FF71CEA30C22CDE90010FB21042061
:1015300002F0BBFA42F6FF004FF6FF71CAA30C227D
:10154000CDE9001040F20711042002F0AEFA42F695
:10155000FF004FF6FF7309221A2100904C2002F081
:10156000B0FB42F6FF004FF6FF730A221A210090EB
:10157000642002F0A6FB42F6FF004FF6FF730D2237
:101580001A2100907C2002F09CFB42F6FF004FF6EF
:10159000FF730B22332100904C2002F092FB42F6A5
:1015A000FF004FF6FF730C2233210090642002F0FD
:1015B00088FB42F6FF004FF6FF730D2233210090A7
:1015C0007C2002F07EFB42F6FF004FF6FF730922FB
:1015D0004C210090084602F074FB42F6FF004FF6E3
:1015E000FF730A224C210090642002F06AFB42F64D
:1015F000FF004FF6FF730D224C2100907C2002F07B
:1016000060FB42F6FF004FF6FF730B22652100904E
:101610004C2002F056FB42F6FF004FF6FF730C22FF
:1016200065210090642002F04CFB42F6FF004FF66B
:10163000FF730D22652100907C2002F042FB42F6F0
:10164000FF004FF6FF7309227E2100904C2002F02C
:1016500038FB42F6FF004FF6FF730A227E2100900E
:10166000642002F02EFB42F6FF004FF6FF730D22BE
:101670007E2100907C2002F024FB42F6FF004FF612
:10168000FF730B22972100904C2002F01AFB42F6C8
:10169000FF004FF6FF730C2297210090642002F0A8
:1016A00010FB42F6FF004FF6FF730D2297210090CA
:1016B0007C2002F006FB42F6FF004FF6FF73092282
:1016C000B02100904C2002F0FCFA42F6FF004FF6E9
:1016D000FF730A22B0210090642002F0F2FA42F671
:1016E000FF004FF6FF730D22B02100907C2002F026
:1016F000E8FA42F6FF004FF6FF730B22C921009073
:101700004C2002F0DEFA42F6FF004FF6FF730C2287
:10171000C9210090642002F0D4FA42F6FF004FF68F
:10172000FF730D22C92100907C2002F0CAFA42F614
:10173000FF004FF6FF730922E22100904C2002F0D7
:10174000C0FA42F6FF004FF6FF730A22E221009032
:10175000642002F0B6FA42F6FF004FF6FF730D2246
:10176000E22100907C2002F0ACFA42F6FF004FF636
:10177000FF730B22FB2100904C2002F0A2FA42F6EC
:10178000FF004FF6FF730C22FB210090642002F053
:1017900098FA42F6FF004FF6FF730D22FB210090EE
:1017A0007C2002F08EFA1FBD08B531480068002881
:1017B0003BD130480078002837D1642006F070FF14
:1017C0002B48006888BB00202949BC3108600120F3
:1017D0002849087028A0FEF74EFD4FF6FF704FF421
:1017E00078430E2233210090902002F06AFA4FF6DF
:1017F000FF704FF47843002233210090A82002F0BC
:1018000060FA4FF6FF704FF478430F2233210090B7
:10181000C02002F056FA4FF6FF704FF478431022C2
:1018200033210090D82002F04CFA1148001D0068C6
:10183000002865D116480078002861D1642006F0A0
:101840002FFF0B48001D006848B9002011490860AF
:1018500001200F49087010A0FEF70DFD28E04FE0B1
:101860004D61783A000000004D696E3A00000000BA
:101870000082424202000020312320746F756368A9
:10188000207761746572206572726F7200000000CB
:1018900003000020AC824142322320746F756368DC
:1018A000207761746572206572726F7200000000AB
:1018B0004FF6FF704FF478430E2265210090902080
:1018C00002F0FFF94FF6FF704FF4784300226521D4
:1018D0000090A82002F0F5F94FF6FF704FF478431E
:1018E0000F2265210090C02002F0EBF94FF6FF7047
:1018F0004FF47843102265210090D82002F0E1F9DE
:10190000FE480068002839D1FD480078B0BB64204B
:1019100006F0C6FEF948006880BB0020F94908605F
:101920000120F7490870F8A0FEF7A5FC4FF6FF70FC
:101930004FF478430E2297210090902002F0C1F9D5
:101940004FF6FF704FF47843002297210090A820B3
:1019500002F0B7F94FF6FF704FF478430F2297214A
:101960000090C02002F0ADF94FF6FF704FF47843BD
:10197000102297210090D82002F0A3F9DF48001D23
:10198000006800283BD1E6480078C0BB642006F020
:1019900087FEDA48001D006888BB0020D949091D70
:1019A00008600120DE490870DEA0FEF764FC4FF6F7
:1019B000FF704FF478430E22C9210090902002F06E
:1019C00080F94FF6FF704FF478430022C921009050
:1019D000A82002F076F94FF6FF704FF478430F22FB
:1019E000C9210090C02002F06CF94FF6FF704FF44F
:1019F00078431022C9210090D82002F062F9CF4824
:101A00000068D0BBCE480078B8BB642006F048FE22
:101A1000CA48006888BB0020C849603108600120BE
:101A2000C7490870C7A0FEF726FC4FF6FF704FF4B9
:101A300078430E22FB210090902002F042F94FF6ED
:101A4000FF704FF478430022FB210090A82002F0A1
:101A500038F94FF6FF704FF478430F22FB210090C6
:101A6000C02002F02EF94FF6FF704FF47843102299
:101A7000FB210090D82002F024F9B8480088B8492A
:101A8000098888427DDCB7480078002879D1B348BE
:101A900000880A283CDCB4480088401CB249088011
:101AA000084600880A2879DB0020088093498C3199
:101AB00008600120AB490870ACA0FEF7DCFB4FF6D4
:101AC000FF704FF478430B2233210090902002F0F6
:101AD000F8F84FF6FF704FF478430C223321009052
:101AE000A82002F0EEF84FF6FF704FF47843112271
:101AF00033210090C02002F0E4F84FF6FF704FF45D
:101B00007843122233210090D82002F0DAF845E021
:101B100092480088782841DC93480088401C92490C
:101B2000088008460088032838DB002008807349B5
:101B30008C31086001208B49087091A0FEF79BFB57
:101B40004FF6FF704FF478430B2233210090902022
:101B500002F0B7F84FF6FF704FF478430C223321B0
:101B60000090A82002F0ADF84FF6FF704FF47843D4
:101B7000112233210090C02002F0A3F84FF6FF702D
:101B800000E008E04FF47843122233210090D8207F
:101B900002F097F802E00020734908807E48008830
:101BA0006F49098888427DDC7C480078002879D11B
:101BB000794800880A283CDC79480088401C78492C
:101BC0000880084600880A2879DB002008804D49F3
:101BD000091F086001207149087072A0FEF74BFBD5
:101BE0004FF6FF704FF478430B2265210090902050
:101BF00002F067F84FF6FF704FF478430C2265212E
:101C00000090A82002F05DF84FF6FF704FF4784383
:101C1000112265210090C02002F053F84FF6FF70AA
:101C20004FF47843122265210090D82002F049F841
:101C300045E059480088782841DC59480088401C14
:101C40005749088008460088032838DB00200880B0
:101C50002C49091F086001205049087056A0FEF762
:101C60000AFB4FF6FF704FF478430B22652100907A
:101C7000902002F026F84FF6FF704FF478430C22C4
:101C800065210090A82002F01CF84FF6FF704FF479
:101C90007843112265210090C02002F012F84FF61F
:101CA000FF7000E008E04FF47843122265210090B5
:101CB000D82002F006F802E00020394908804448A4
:101CC000008827490988884216DC0D4800780028DA
:101CD00012D13F4800880A280FDC3E480088401C8B
:101CE0003C490880084600880A2875DB00200880E7
:101CF00004490860012070E0DDE09CE0308242424F
:101D000004000020B0824142332320746F75636861
:101D1000207761746572206572726F720000000036
:101D200005000020342320746F7563682077617488
:101D30006572206572726F72000000003C024042C2
:101D400006000020352320746F7563682077617466
:101D50006572206572726F72000000001200002030
:101D60003A000020020000201C0000203123206ED9
:101D70006F207761746572206572726F7200000067
:101D80003123206C6974746C6520776174657220EE
:101D90007761726E696E67001400002003000020F6
:101DA0001E0000203223206E6F2077617465722040
:101DB0006572726F720000003223206C6974746C5B
:101DC00065207761746572207761726E696E670055
:101DD00016000020200000206CE0FE490870FEA0E4
:101DE000FEF749FA4FF6FF704FF478430B22972124
:101DF0000090902001F065FF4FF6FF704FF478439C
:101E00000C2297210090A82001F05BFF4FF6FF7095
:101E10004FF47843112297210090C02001F051FF28
:101E20004FF6FF704FF47843122297210090D8208C
:101E300001F047FF42E0ED48008878283EDCEC489E
:101E40000088401CEA49088008460088032835DBE2
:101E500000200880E74908600120DE490870E6A0FC
:101E6000FEF709FA4FF6FF704FF478430B229721E3
:101E70000090902001F025FF4FF6FF704FF478435B
:101E80000C2297210090A82001F01BFF4FF6FF7055
:101E90004FF47843112297210090C02001F011FFE8
:101EA0004FF6FF704FF47843122297210090D8200C
:101EB00001F007FF02E00020CD490880D4480088E7
:101EC000D449098888427DDCD3480078002879D13C
:101ED000CF4800880A283CDCD0480088401CCF4905
:101EE0000880084600880A2879DB00200880C1495C
:101EF000091D08600120C8490870C9A0FEF7BBF998
:101F00004FF6FF704FF478430B22C92100909020C8
:101F100001F0D7FE4FF6FF704FF478430C22C92131
:101F20000090A82001F0CDFE4FF6FF704FF47843EB
:101F30001122C9210090C02001F0C3FE4FF6FF70AE
:101F40004FF478431222C9210090D82001F0B9FE45
:101F500045E0AF480088782841DCB0480088401C44
:101F6000AE49088008460088032838DB0020088036
:101F7000A049091D08600120A7490870ADA0FEF71F
:101F80007AF94FF6FF704FF478430B22C921009085
:101F9000902001F096FE4FF6FF704FF478430C222C
:101FA000C9210090A82001F08CFE4FF6FF704FF47D
:101FB00078431122C9210090C02001F082FE4FF623
:101FC000FF7000E008E04FF478431222C92100902E
:101FD000D82001F076FE02E00020904908809B485E
:101FE00000888C49098888427EDC9948007800285E
:101FF0007AD1964800880A283BDC96480088401C25
:1020000094490880084600880A2877DB0020088069
:102010009149086001208E49087090A0FEF72BF9C5
:102020004FF6FF704FF478430B22FB210090902075
:1020300001F047FE4FF6FF704FF478430C22FB216E
:102040000090A82001F03DFE4FF6FF704FF478435A
:102050001122FB210090C02001F033FE4FF6FF70EB
:102060004FF478431222FB210090D82001F029FE82
:1020700044E076480088782840DC76480088401C98
:102080007449088008460088032837DB0020088050
:102090007149086001206E49087075A0FEF7EBF8E1
:1020A0004FF6FF704FF478430B22FB2100909020F5
:1020B00001F007FE4FF6FF704FF478430C22FB212E
:1020C0000090A82001F0FDFD4FF6FF704FF478431B
:1020D0001122FB210090C02001F0F3FD4FF6FF70AC
:1020E0004FF47843122200E005E0FB210090D82055
:1020F00001F0E7FD02E000205649088008BD1FB549
:102100004FF4A06004F044F8FEF726FF06F06BFAE7
:1021100001F01CFE01F046FEFEF7A4FF03F0BBFF3A
:1021200001F0F6F94FF6FF7057490880FFF76CF899
:1021300006225649002004F001F85448FEF7A7F89B
:102140005349086006225149082003F0F7FF4F4821
:10215000FEF79DF84F49086006224C49102003F015
:10216000EDFF4A48FEF793F84B49086006224749BD
:10217000182003F0E3FF4548FEF789F84749086057
:1021800006224249202003F0D9FF4048FEF77FF89D
:102190004349086042F6FF004FF6FF710022182302
:1021A000CDE90032CDE90210062339481A21026830
:1021B000942001F024FD42F6FF004FF6FF7100224B
:1021C0001823CDE90032CDE90210062331484C2115
:1021D000026867E00400002033236E6F207761748B
:1021E0006572206572726F72000000001600002098
:1021F00020000020B08241423323206C6974746C4B
:1022000065207761746572207761726E696E670010
:10221000180000203A0000200500002022000020C5
:102220003423206E6F207761746572206572726F3F
:10223000720000003423206C6974746C652077612F
:10224000746572207761726E696E67001A000020F3
:1022500006000020240000209C0240423523206E0E
:102260006F207761746572206572726F7200000072
:102270003523206C6974746C6520776174657220F5
:102280007761726E696E6700AC00002091000020DB
:102290003C000020400000204400002048000020B6
:1022A0004C000020942001F0AAFC42F6FF004FF6FB
:1022B000FF7100221823CDE90032CDE90210062378
:1022C000FD487E210268942001F099FC42F6FF004F
:1022D0004FF6FF7100221823CDE90032CDE902103C
:1022E0000623F648B0210268942001F088FC42F6EB
:1022F000FF004FF6FF7100221823CDE90032CDE92F
:1023000002100623EE48E2210268942001F077FCD7
:10231000FDE3002001F0A0FDEA48007801287DD10E
:102320004FF47A7006F0BCF9E74800680128F6D14E
:10233000E6480088E6490880E6480088E6490880C3
:10234000E6480088E6490880E6480088E6490880B3
:10235000E6480088E64908800020DC490880DD491D
:102360000880DE490880DF490880E0490880FFF7DF
:102370001BFAE0480078B8B9DF480068401CDE4925
:102380000860084600686421B0FBF1F201FB12000E
:1023900050B9D948D9A10268D94807F03DF90622B9
:1023A000D749002003F0DCFED6480078B8B9D648FB
:1023B0000068401CD4490860084600686421B0FBEE
:1023C000F1F201FB120050B9CF48CCA10268CC4811
:1023D00007F022F90622CA49082003F0C1FECB48C3
:1023E0000078B8B9B4480068401CB3490860084692
:1023F00000686421B0FBF1F201FB120050B9AE4855
:10240000BEA10268BE4807F007F90622BC491020A9
:1024100003F0A6FEBE480078C8B900E0B3E2A748C2
:102420000068401CA5490860084600686421B0FBAC
:10243000F1F201FB120050B9A048B0A10268B04807
:1024400007F0EAF80622AE49182003F089FEB148E9
:102450000078B8B99A480068401C99490860084655
:1024600000686421B0FBF1F201FB120050B99448FE
:10247000A2A10268A24807F0CFF80622A0492020B6
:1024800003F06EFE92480088A3490988884204DD63
:102490008F480088A04908800DE08D4800889F493A
:1024A0000988884207DA8A4800880A2803DD8848B4
:1024B00000889A4908808848008899490988884294
:1024C00004DD85480088964908800DE08248008830
:1024D00094490988884207DA7F4800880A2803DD82
:1024E0007D4800888F4908807D4800888E4909888A
:1024F000884204DD7A4800888B4908800DE07848DE
:1025000000888A490988884207DA754800880A28BD
:1025100003DD734800888549088073480088844932
:102520000988884204DD70480088814908800DE0F0
:102530006D4800887F490988884207DA6A48008820
:102540000A2803DD684800887A49088068480088BE
:1025500079490988884204DD654800887649088001
:102560000DE06348008875490988884207DA6048A9
:1025700000880A2803DD5E480088704908805D48AD
:10258000007888B942F6FF004FF6FF710022182349
:10259000CDE90032CDE90210062357481A2102681E
:1025A000942001F02CFB10E04FF6FF704FF47841BF
:1025B00000221823CDE90032CDE9021006234E484F
:1025C0001A210268942001F01AFB4E48007888B95D
:1025D00042F6FF004FF6FF7100221823CDE90032CA
:1025E000CDE90210062348484C210268942001F0EE
:1025F00006FB10E04FF6FF704FF4784100221823DD
:10260000CDE90032CDE9021006233F484C21026893
:10261000942001F0F4FA3D48007888B942F6FF00B2
:102620004FF6FF7100221823CDE90032CDE90210E8
:10263000062321487E210268942001F0E0FA10E090
:102640004FF6FF704FF4784100221823CDE9003295
:10265000CDE90210062318487E210268942001F07B
:10266000CEFA2B48007888B942F6FF004FF6FF718A
:1026700000221823CDE90032CDE9021006230F48CD
:10268000B0210268942001F0BAFA10E04FF6FF7012
:102690004FF4784100221823CDE90032CDE9021031
:1026A00006230648B0210268942001F0A8FA1948D0
:1026B000007800B944E055E04400002048000020C4
:1026C0004C000020BF0000201402414208000020FE
:1026D000120000200A000020140000200C0000203E
:1026E000160000200E00002018000020100000201E
:1026F0001A000020020000203C0000202564000099
:102700009100002003000020400000200400002071
:1027100005000020060000202600002030000020D8
:1027200028000020320000202A0000203400002071
:102730002C000020360000202E0000203800002051
:1027400042F6FF004FF6FF7100221823CDE9003258
:10275000CDE902100623FE48E2210268942001F030
:102760004EFA10E04FF6FF704FF478410022182324
:10277000CDE90032CDE902100623F548E2210268D6
:10278000942001F03CFA42F6FF004FF6FF71002260
:102790001823CDE90032CDE902100623ED48028866
:1027A0003321942001F02BFA42F6FF004FF6FF711F
:1027B00000221823CDE90032CDE902100623E648B5
:1027C00002886521942001F01AFA42F6FF004FF6C4
:1027D000FF7100221823CDE90032CDE90210062353
:1027E000DE4802889721942001F009FA42F6FF00A2
:1027F0004FF6FF7100221823CDE90032CDE9021017
:102800000623D7480288C921942001F0F8F942F63E
:10281000FF004FF6FF7100221823CDE90032CDE909
:1028200002100623CF480288FB21942001F0E7F92B
:1028300042F6FF004FF6FF7100220C23CDE9003273
:10284000CDE902100423C848028833211C2001F07E
:10285000D6F942F6FF004FF6FF7100220C23CDE9B6
:102860000032CDE902100423C04802883F211C2019
:1028700001F0C5F942F6FF004FF6FF7100220C236C
:10288000CDE90032CDE902100423B9480288652160
:102890001C2001F0B4F942F6FF004FF6FF71002250
:1028A0000C23CDE90032CDE902100423B14802889F
:1028B00071211C2001F0A3F942F6FF004FF6FF71D1
:1028C00000220C23CDE90032CDE902100423AA48EE
:1028D000028897211C2001F092F942F6FF004FF682
:1028E000FF7100220C23CDE90032CDE90210042350
:1028F000A2480288A3211C2001F081F942F6FF00C2
:102900004FF6FF7100220C23CDE90032CDE9021011
:1029100004239B480288C9211C2001F070F942F66B
:10292000FF004FF6FF7100220C23CDE90032CDE904
:102930000210042393480288D5211C2001F05FF97E
:1029400042F6FF004FF6FF7100220C23CDE9003262
:10295000CDE9021004238C480288FB211C2001F0E1
:102960004EF942F6FF004FF6FF7100220C23CDE92D
:102970000032CDE9021004238448028840F2071196
:102980001C2001F03CF982480078022878D1062208
:102990008049002003F0E4FB06227E49082003F072
:1029A000DFFB06227B49102003F0DAFB062279497F
:1029B000182003F0D5FB06227649202003F0D0FB37
:1029C00000207549086075490860754908607549B7
:1029D00008605F49086042F6FF004FF6FF71002271
:1029E0001823CDE90032CDE9021006236A481A21E6
:1029F0000268942001F003F942F6FF004FF6FF71E0
:102A000000221823CDE90032CDE9021006236348E5
:102A10004C210268942001F0F2F842F6FF004FF6D4
:102A2000FF7100221823CDE90032CDE90210062300
:102A30005B487E210268942001F0E1F842F6FF0035
:102A40004FF6FF7100221823CDE90032CDE90210C4
:102A500006235448B0210268942001F0D0F842F6D1
:102A6000FF004FF6FF7100221823CDE90032CDE9B7
:102A7000021006233648E2210268942001F0BFF8D4
:102A800003F00EFA48490968401A48490968884223
:102A900002D84548006828B9FDF780FB03F000FA2A
:102AA0004149086003F0FCF941490968401A41496D
:102AB0000968884205D9FDF783FB03F0F1F93C4929
:102AC000086003F0EDF93C490968401A3B49096880
:102AD000884233D93A4800683A490968CDE900107C
:102AE0002048008800EE100AB8EE402A1C480088F2
:102AF00000EE100AF8EE401A1848008800EE100A9E
:102B0000B8EE401A304803681348008800E07DE0C2
:102B100000EE100AF8EE400A2C4802680D480088C2
:102B200000EE100AB8EE400A2948016829480068FA
:102B3000FDF754FB03F0B4F91F49086003F0B0F946
:102B400025490968401A2549096888424BD847E059
:102B50004C0000201200002014000020160000206D
:102B6000180000201A00002026000020300000205D
:102B700028000020320000202A000020340000201D
:102B80002C000020360000202E00002038000020FD
:102B9000BE000020601100083C0000204000002022
:102BA0004400002048000020500000206C0000205D
:102BB0005400002070000020580000206400002015
:102BC0008C0000208800002084000020800000206D
:102BD0007C000020740000205C00002068000020C1
:102BE0000B48006828B9FDF74DFB03F059F9084977
:102BF000086008480078012808D1002005490870BD
:102C00000548FDF758FB002004490870FFF781BB19
:102C10005C00002001000020FC00002000000020DB
:102C2000704700BFFEE700BFFEE700BFFEE700BF42
:102C3000FEE77047704770477047000006488047BE
:102C400006480047FEE7FEE7FEE7FEE7FEE7FEE791
:102C5000FEE7FEE7FEE7FEE73D2D000889010008DC
:102C60000CB50020019000907648006840F4803058
:102C70007449086000BF7348006800F40030009099
:102C80000198401C0190009818B90198B0F5A04F28
:102C9000F1D16C48006800F4003010B101200090C0
:102CA00001E0002000900098012846D1654840309E
:102CB000006840F080506349403108606248006815
:102CC00040F44040604908605E48083000685D4953
:102CD000083108600846006840F400400860084673
:102CE000006840F4A05008605848091F0860081F99
:102CF000006840F08070091F086000BF51480068FC
:102D000000F000700028F9D040F2057050490860CA
:102D10004C480830006820F003004A490831086038
:102D20000846006840F00200086000BF45480830CF
:102D3000006800F00C000828F8D10CBD10B545481B
:102D4000006840F47000434908603E48006840F065
:102D500001003C49086000203A49083108603948C0
:102D600000683D490840374908603C48091D086033
:102D7000081F006820F48020091F086000203149E6
:102D80000C310860FFF76CFF4FF00060314980396B
:102D9000086010BD70B5002000220223002402212B
:102DA000284D08352D6805F00C0020B1042806D008
:102DB000082834D107E02A4D2A4E356033E02A4DE9
:102DC000284E35602FE01F4D2D1D2D68C5F3805412
:102DD0001C4D2D1D2D6805F03F0154B1224DB5FB52
:102DE000F1F5184E361D3668C6F3881605FB06F257
:102DF00009E01B4DB5FBF1F5124E361D3668C6F3E2
:102E0000881605FB06F20F4D2D1D2D68C5F30145F3
:102E10006D1C6B00B2FBF3F5124E356003E0104DF4
:102E2000104E356000BF00BF064D08352D68C5F354
:102E300003150E4E705D0B4D2D68C540094E356073
:102E400070BD000000380240007000400854400788
:102E5000003C024088ED00E0FFFFF6FE1030002449
:102E60000024F4009800002000127A009C0000204A
:102E7000F64A1080921C1180704710B50446F34842
:102E80000480042005F0C4FBF048801C008810BDBD
:102E900000BF0100A0F10102D0B2FAD17047EC48A6
:102EA0000088EA49088070472920E849088070476F
:102EB0002820E6490880704730B58418641EA2B205
:102EC000CC18641EA3B2E34C24786CBBE24C24887B
:102ED00041F66315AC4227D1E04C2488A41A241A89
:102EE000A0B2CC18641EA3B2DD4C2488D74D2C8030
:102EF0000412AD1C2C80C4B22C808418641EC4F350
:102F00000F242C808418641EE4B22C80D54C2488B5
:102F1000AD1E2C800C12AD1C2C80CCB22C801C124F
:102F20002C80DCB22C8019E0CD4C2488C74D2C803D
:102F30000412AD1C2C80C4B22C8014122C80D4B28C
:102F40002C80C84C2488AD1E2C800C12AD1C2C800B
:102F5000CCB22C801C122C80DCB22C8030BD70B521
:102F6000054600240026BB480078012805D1BA4850
:102F7000008849F24131884208D0B6480078F0B95B
:102F8000B548008841F66311884218D1082D15D242
:102F9000DFE805F00406080A0C0E101206250DE005
:102FA00007250BE0042509E0052507E0012505E0DC
:102FB000002503E0032501E0022500BF00BF082D26
:102FC0001CD2DFE805F00406090C0F12151800BF2B
:102FD00014E044F0800411E044F040040EE044F0BA
:102FE000C0040BE044F0200408E044F0600405E075
:102FF00044F0A00402E044F0E00400BF00BF362625
:103000009548008849F24131884201D144F00804D2
:1030100021463046FFF72CFF934803888F480288EB
:1030200000210846FFF748FF70BD10B504468CBB71
:103030000020884908708848008849F24131884258
:1030400010D12C20824908802A20854908802B2015
:1030500084490880F020814908804FF4A07082499B
:10306000088049E07C48008841F66311884243D1DA
:103070002C20774908802B20794908802A2079491B
:1030800008804FF4F070754908804FF44870764915
:10309000088031E0FFE701206E4908706E48008823
:1030A00049F24131884210D12C20694908802A20F8
:1030B0006B4908802B206B4908804FF4A07067494A
:1030C0000880F0206849088016E06348008841F6CF
:1030D0006311884210D12C205D4908802A20604964
:1030E00008802B205F4908804FF448705B490880B6
:1030F0004FF4F0705C4908800020FFF730FF10BDEE
:10310000554A128849F241339A4212D1544A1288E0
:103110004E4B1A8002129B1C1A80C2B21A80514A6E
:1031200012889B1E1A800A129B1C1A80CAB21A802F
:1031300042E0494A128841F663139A423CD1454A1B
:1031400012788AB9454A1288521E121A90B2444A1D
:1031500012883E4B1A8000229B1C1A801A80021291
:103160001A80C2B21A8013E03D4A1288374B1A8087
:1031700002129B1C1A80C2B21A80384A1288521E50
:10318000C2F30F221A80354A1278521ED2B21A8028
:10319000344A12882D4B1A800A129B1C1A80CAB21C
:1031A0001A80314A1288521EC2F30F221A802E4A08
:1031B0001278521ED2B21A8070473EB504460D46B0
:1031C000002002900190009029462046FFF798FFCA
:1031D0002E201E490880881C008802901E48008806
:1031E00041F66311884202D1BDF808003EBD0220BD
:1031F000FFF74EFE1548801C00880090BDF80800BF
:10320000C0B20190BDF804004FF6FF7101EA002042
:103210000190BDF80800C012C002BDF80410891268
:1032200040EA4110BDF8001040EAE120DEE730B589
:1032300004460D4629462046FFF762FFFFF72FFEA2
:103240000A4800880149891C088030BDFE1F006CB7
:10325000B8000020B2000020B0000020B400002020
:10326000BA000020BC000020B6000020AC00002006
:1032700070B505460E46144631462846FFF7D7FF7F
:10328000FE480088FE490880881C048070BDBE216D
:10329000FB4A11800521921C1180114608800121F2
:1032A0001180FF211180002111801180704770B5BD
:1032B000044600250026F3480088F349098800FBEE
:1032C00001F600210846FFF71BFFFFF7E8FD00BFEE
:1032D00003E0EB48801C04806D1CB542F9D370BD3F
:1032E00000B59FB00121782003F0CAFD01210846F6
:1032F00003F0FEFD4FF480601D9001208DF87800F2
:1033000000208DF87A0002208DF8790001208DF8D8
:103310007B001DA9DD4803F015FB4CF233701D90B6
:1033200002208DF8780000208DF87A0003208DF8B7
:10333000790001208DF87B001DA9D54803F002FB20
:103340004FF680701D9002208DF8780000208DF8D7
:103350007A0003208DF8790001208DF87B001DA9EB
:10336000CC4803F0EFFA04201D9002208DF878007D
:1033700000208DF87A0003208DF8790001208DF867
:103380007B001DA9C44803F0DDFA4FF480501D9066
:1033900002208DF8780000208DF87A0003208DF847
:1033A000790001208DF87B001DA9BB4803F0CAFA03
:1033B0000C220021B64803F050FB0C220121B44836
:1033C00003F04BFB0C220421B14803F046FB0C2216
:1033D0000521AF4803F041FB0C220821AC4803F063
:1033E0003CFB0C220921AA4803F037FB0C220A21DE
:1033F000A74803F032FB0C220E21A54803F02DFB59
:103400000C220F21A24803F028FB0C220721A1481F
:1034100003F023FB0C2208219E4803F01EFB0C2224
:1034200009219C4803F019FB0C220A21994803F05A
:1034300014FB0C220B21974803F00FFB0C221146C2
:10344000944803F00AFB0C220D21924803F005FB7F
:103450000C220E218F4803F000FB0C220F218D4817
:1034600003F0FBFA0C2202218B4803F0F6FA0C223F
:103470001146894803F0F1FA0F20079000200890C8
:103480003C20099000200A900B900C900D90082091
:1034900000900020019007200290002003900490EB
:1034A0000590069006200E9000200F90109010209E
:1034B00011900020129014901390159016904FF4D4
:1034C00080501790002018904FF4804019900020F1
:1034D0001A9007A81B90CDF870D00EA802F0E3FE5A
:1034E0000121062002F06AFF322005F0D9F81FB052
:1034F00000BDD321624A1180911C08880888088881
:103500004FF6FF7101EA0020911C098808437047BB
:1035100010B5FFF7E5FEFFF7ECFF604908800846AD
:10352000008849F24131884223D0A12054490880C3
:10353000881C0088594908805148801C00880880F0
:10354000084600884FF6FF7101EA002053490880C1
:103550004B48801C00880988084350490880084669
:10356000008845F26171884203D141F663104B49EE
:1035700008804A48008849F2413188421CD14848B5
:10358000006820F00F004FF02041C1F81C010846F0
:10359000D0F81C0120F47060C1F81C010846D0F876
:1035A0001C0140F00300C1F81C010846D0F81C01C2
:1035B00040F40070C1F81C013848008849F24131DC
:1035C00088426FD1CF202E4908800020891C0880B6
:1035D000C120088030200880ED20891E08806420EA
:1035E000891C088003200880122008808120088020
:1035F000E820891E08808520891C0880102008800A
:103600007A200880CB20891E08803920891C0880F8
:103610002C200880002008803420088002200880A8
:10362000F720891E08802020891C0880EA20891E36
:1036300008800020891C08800880C020891E08801E
:103640001B20891C0880C120891E08800120891C3C
:103650000880C520891E08803020891C08800880C9
:10366000C720891E0880B720891C08803620891E43
:1036700008804820891C08803A2014E0B800002007
:10368000FE1F006CB4000020B600002000140240B1
:10369000000C02400010024000180240B000002060
:1036A0001C0100A082E0891E08805520891C08802A
:1036B000B120891E08800020891C08801A200880FB
:1036C000B620891E08800A20891C0880A220088054
:1036D000F220891E08800020891C08802620891E6F
:1036E00008800120891C0880E020891E08800F20A6
:1036F000891C08802A20088028200880082008804B
:103700000E2008800820088054200880A920088006
:10371000432008800A2008800F20088000200880AD
:10372000088008800880E120891E08800020891C0C
:1037300008801520088017200880072008801120A5
:103740000880062008802B200880562008803C2016
:10375000088005200880102008800F2008803F2066
:10376000088008800F2008802B20891E08800020F8
:10377000891C08800880012008803F2008802A20BA
:10378000891E08800020891C088008800880EF209E
:1037900008801120891E0880782004F081FF2920EC
:1037A000FB4908800120FB49086098E0FA4800883E
:1037B00041F663118842F8D1E220F54908801D20C6
:1037C000891C08800220088004200880642004F0FE
:1037D0001FFFE020EE4908800120891C08800A2094
:1037E00004F05EFFE020EA4908800320891C08807D
:1037F0000C2004F055FF0120E54908800A2004F060
:103800004FFFE620E24908802F20891C0880FF2016
:1038100008800880B020891E08802020891C08802C
:10382000002008800320088040F21F30088001201B
:10383000088040F2DF10088000200880B420891E34
:1038400008800420891C088040F21F400880002066
:1038500008802E20088000200880088008800880CA
:10386000B620891E08800220891C08804FF403704E
:10387000088000200880172008801520088000207C
:1038800008800880F020891E08800320891C088099
:103890002920891E0880D02008800020891C0880EB
:1038A000BE20891E08800520891C0880FE20088013
:1038B000012008800020088008800880B820891E28
:1038C00008800320891C088001200880BA20891EF6
:1038D00008800120891C0880FF20FFF7D8FC002009
:1038E000FFF7A3FB0020FFF7E2FC10BD2DE9F04F2E
:1038F00005460E4617469846DDF824A04FF0000B0B
:10390000781B401C1FFA80FB344614E021462846F1
:10391000FFF7F6FBFFF7C3FA4FF0000907E09C48FA
:10392000801CA0F800A009F101001FFA80F9D94518
:10393000F5DB601C84B24445E8DDBDE8F08F2DE97D
:10394000F84F07460D4690469946DDF828B0A8EB9B
:103950000700401C80B20090A9EB0500401C1FFA34
:1039600080FA002416E0281981B23846FFF7C8FB18
:10397000FFF795FA002608E004FB0A603BF8100008
:103980008349891C0880701C86B200988642F3DB4C
:10399000601C84B25445E6DBBDE8F88F2DE9FF4F8B
:1039A000074616461C46BB460C2C01D198460AE039
:1039B000102C01D1A04606E0182C02D14FF030089F
:1039C00001E0BDE8FF8FA6F12000C6B2002548E067
:1039D0000C2C07D106EB4600704901EB800010F873
:1039E000059010E0102C05D16D4800EB061010F882
:1039F000059008E0182C06D106EB4600694901EB5A
:103A0000001010F805904FF0000A24E009F00100C2
:103A100030B16548028838460199FFF729FC05E076
:103A20006248028838460199FFF722FC4FEA69098B
:103A3000781C87B2A7EB0B0104EBD472B1EB620FD9
:103A400005D15F460198401C80B2019006E00AF162
:103A5000010000F0FF0ABAF1080FD7DB00BF681CB5
:103A6000C5B24545B4DB00BFABE7F0B506460F462F
:103A700015461C4611E022782B4639463046FFF7A2
:103A80008DFF284605EBD07106EB61018EB24848E8
:103A90000088864200DB06E0641C2078202802DBD8
:103AA00020787E28E7DD00BFF0BD2DE9F04F044609
:103AB0000D4616461F46DDE909893B48B0F800A0CF
:103AC0003A48B0F800B03848A0F800803748A0F86D
:103AD00000903B46324629462046FFF7C6FF324853
:103AE000A0F800A03148A0F800B0BDE8F08F10B5F4
:103AF0000246012000E050430B00A1F10104E1B2B5
:103B0000F9D110BD2DE9FF4F81B0074690461E4602
:103B10000E9DC3464FF0000906E00A20BBFBF0FBF8
:103B200009F1010000F0FF09BBF1000FF5D1B1452B
:103B300008DD20A32A4638460299FFF796FF05B014
:103B4000BDE8F08F002456E0A6EB0900A04235DD69
:103B50000F9810B9701EA0420CD105EBD571491019
:103B600001FB047188B22B46302200950299FFF7C1
:103B700015FF3EE005EBD571491001FB047188B2D9
:103B80002B46202200950299FFF708FF31E0000044
:103B9000FE1F006CA8824242B000002098A60008D8
:103BA0000CAB0008FCB00008AC000020AE00002008
:103BB000B40000204552524F52000000301B401EFE
:103BC000C1B20A20FFF793FFB8FBF0F00A21B0FB67
:103BD000F1F201FB120A05EBD571491001FB0471EA
:103BE00088B20AF13001CAB22B4600950299FFF75C
:103BF000D5FE601CC4B2B442A6DB00BF9FE72DE92E
:103C0000FF4F82B004460D461646DDE91189109F2C
:103C10004A48B0F800A04A48B0F800B04748A0F8B9
:103C200000804748A0F800900F98CDE90007324681
:103C300029462046059BFFF765FF4048A0F800A0F5
:103C40003F48A0F800B006B0BDE8F08F2DE9F04F76
:103C500007460C4615469846A34600262DE006EB7F
:103C60004510384911F800904FF0000A1FE009F0A4
:103C7000800028B1424621463846FFF7F9FA04E0B1
:103C800021463846099AFFF7F3FA4FEA49604FEAAE
:103C90001069601C84B2A4EB0B00102803D15C46B1
:103CA000781C87B206E00AF1010000F0FF0ABAF1C1
:103CB000080FDCDB00BF701CC6B2202ECFDBBDE8D6
:103CC000F08F2DE9F04F06460C4617469846A3465E
:103CD00000252FE007EBC70005EBC0001A4911F8DB
:103CE00000904FF0000A1FE009F0800028B1424622
:103CF00021463046FFF7BCFA04E021463046099AD7
:103D0000FFF7B6FA4FEA49604FEA1069601C84B2C7
:103D1000A4EB0B00182803D15C46701C86B206E0A9
:103D20000AF1010000F0FF0ABAF1080FDCDB00BF66
:103D3000681CC5B2482DCDDBBDE8F08FAC0000207B
:103D4000AE000020A0A0000840A100081CB5012181
:103D5000502003F095F81820009001208DF8040001
:103D600000208DF8060003208DF8050001208DF855
:103D700007006946094802F0E5FD1821074802F0EE
:103D80005DFE4FF4007000906946054802F0DAFDD0
:103D90004FF40071024802F051FE1CBD00100240B9
:103DA000001802401CB501212D2003F069F847F2EC
:103DB000C330009000208DF8040003208DF805002A
:103DC00001208DF807006946584802F0BBFD4FF40A
:103DD0000040009000208DF8040003208DF80500BD
:103DE00001208DF807006946514802F0ABFD202004
:103DF000009069464F4802F0A5FD4FF40040009046
:103E000001208DF8040000208DF8060003208DF8B5
:103E1000050001208DF807006946444802F092FD34
:103E20004FF40041414802F009FE4FF46050009009
:103E30006946414802F086FD4FF460513E4802F069
:103E4000FDFD802000906946394802F07BFD80210D
:103E5000374802F0F3FD1CBD0021384A1170384983
:103E6000096879B13749096861B13649091F09689C
:103E700041B134490839096821B132490C3909681E
:103E8000002943D12E49096819B901212E4A117020
:103E90001DE02C49096819B902212B4A117016E05E
:103EA0002849091F096819B90321274A11700EE032
:103EB00024490839096819B90421234A117006E018
:103EC00020490C39096811B905211F4A11701E4992
:103ED00009781E4A1278914210D11D490988491C5F
:103EE0001B4A1180184909781A4A1170E8B9184913
:103EF0000988012919DD0021117016E00021144AFA
:103F0000118011490978114A11700EE01049098891
:103F1000022903DD0C490978084A117000210B4A77
:103F200011700B4A11800B4A117070470014024047
:103F30000000024000080240000C0240BF000020C8
:103F40001402414224824242C2000020C3000020E9
:103F5000C0000020BE000020FE480068FD494968FE
:103F60000844704708B5042005230122FAA10090F7
:103F7000FC4805F051FBFB4808BD70B504460D46F2
:103F800004B10DB9012070BDAC4201D10020FAE7A7
:103F900005E0207808B90020F5E7641C6D1C207846
:103FA00004F0ABFB0646287804F0A7FB8642F0D06D
:103FB000207804F0A2FB0646287804F09EFB301A15
:103FC000E1E72DE9F04104460D460026002714B92B
:103FD0000020BDE8F081204604F0BEFB461C3046C0
:103FE00029688847070000D1F3E732462146384662
:103FF00004F08EFB3846ECE738B9DB49DB4A116048
:10400000DB495160DB4991607047D749D74A11605D
:10401000016809B101681160D549D44A516041680D
:1040200009B1416851600021D04A91601146096888
:10403000CD4A914207D1CD494968CD4A914202D13A
:10404000CC49CA4A916000BFDEE770B5044628201B
:104050002168884705461DB12821284604F071FBD8
:10406000284670BD70B50446002522E02568A08969
:1040700000F4807020B9A06810B1A068FFF7F2FFCB
:10408000A08900F4807028B9206918B1B74A206966
:1040900051688847A08900F4007028B9206A18B1D7
:1040A000B24A206A51688847B0484168204688472C
:1040B0002C46002CDAD170BD10B504F025FB044667
:1040C0002068007810BDF0B52DED028B91B006464A
:1040D0000C469FEDA90BB0EE408AF0EE608A0020FE
:1040E0001090FFF7E9FF074600250CB1206820B9C2
:1040F000002011B0BDEC028BF0BD00253CE0A168B2
:1041000020680844405D342820D00ADCA0F12B0050
:1041100009282ED2DFE800F0202D212A2D161718AD
:104120001900382816D006DC352810D036280FD0D4
:1041300037281ED10DE039280DD045280FD065282D
:1041400017D10BE000BF00BF00BF00BF00BF00BF22
:1041500000BF00BF00BF00BF00BF00BF00BFA1681D
:1041600020680844405D0DF8050003E00DF8057077
:1041700000E00AE000BF6D1C3F2D05D224B1A0680D
:10418000284461688842BAD300BF00200DF80500BA
:1041900010A9684605F084FAB0EE408AF0EE608A15
:1041A00068461099884201D10020A2E786ED068B6F
:1041B0009FED730B53EC102B51EC180B04F07CFDAE
:1041C00003D86FF00040706111E09FED6F0B53EC6E
:1041D000102B51EC180B04F05BFD03D84FF000409E
:1041E000706104E051EC180B04F01FFD70610820B1
:1041F000F060A0686A461099891A0844A0600120FE
:1042000077E710B52DED028B0446B0EE408AF0EE54
:10421000608A9FED5B0B53EC102B51EC180B04F0F4
:104220004BFD03D86FF00040606111E09FED560B2D
:1042300053EC102B51EC180B04F02AFD03D84FF06F
:104240000040606104E051EC180B04F0EEFC60618A
:10425000B0EE480AF0EE680A84ED060BBDEC028B66
:1042600010BD2DE9F04104460D46002600270CB193
:10427000206810B90020BDE8F081606828B1D4E959
:104280000110884201D30020F5E7B5F1004F01D3BA
:104290000020F0E7A068401C05446068A84203D3F2
:1042A000A16820680844E6E7206908B10020E2E739
:1042B000B5F1804F07D3B5F1004F02D26FF0004740
:1042C00002E00020D7E76F00206A28B13946226A51
:1042D00020689047064615E03846A169884706469B
:1042E00036B9E16920688847002060602060C2E735
:1042F0002EB1A068421C3046216804F009FAE16939
:104300002068884767602660A0683044B3E770B5CE
:10431000044600250CB1206800B970BDA168206872
:104320004518284604F018FAA1680844A06000BFA8
:10433000F3E72DE9F0432DED048B89B080460D465F
:10434000002798ED060BB0EE408AF0EE608A00265A
:1043500000241DE0C400002025692E25692E256952
:1043600000000000FC040020C9960008CC000020DA
:104370004196000835A00008000000000000000081
:104380000000C0FFFFFFDF41000000000000E0C1AF
:10439000FFF792FE81462DB9002009B0BDEC048BD9
:1043A000BDE8F0831FED0C0B53EC102B51EC180BF8
:1043B00004F0B8FB41EC190B1FED110B53EC102B63
:1043C00004F066FC05D0F8A102A805F025F9064620
:1043D0001DE053EC182BF6A102A805F01DF90646C6
:1043E0006A46F5A102A804F0E5F9012808D153ECCA
:1043F000182B9DED000B51EC100B04F049FC06D07E
:1044000053EC182BEDA102A805F006F90646002E84
:1044100001DB192E01DD0020BFE731462846FFF7FA
:1044200020FF07460FB90020B7E700240BE002A8E1
:10443000005D484502D12E20385503E002A8005DFA
:10444000385500BF641CB442F1D300203855A86829
:104450003044A8600120A0E702460023002100BFED
:1044600023E0505C302806DB505C392803DC505CCC
:104470003038034415E0505C412806DB505C462888
:1044800003DC505C373803440BE0505C612806DBEA
:10449000505C662803DC505C5738034401E0002080
:1044A0007047032900D21B01491C0429D9D318469F
:1044B000F6E72DE9FF5F8046894615460024002671
:1044C000C24600200390834602900190A9EB0A00A7
:1044D000062800DA81E00AF10200FFF7BDFF064678
:1044E000B6F55C4F03D3B6F5604F00D275E0B6F574
:1044F000584F29D3B6F55C4F26D20AF106070020A3
:1045000000900C200290A9EB0700062800DA64E076
:1045100038785C2802D17878752800D05DE0B81C26
:10452000FFF79AFF00900098B0F55C4F03D3009816
:10453000B0F5604F00D350E0C6F30901009861F375
:104540009F2000F5803402E0062002903446802C43
:1045500002D20120039018E0B4F5006F04D20220CB
:104560000390C020019010E0B4F5803F04D20320F6
:104570000390E020019008E0B4F5881F04D20420E5
:104580000390F020019000E027E00398401E00F027
:10459000FF0B0BE004F0BF0040F08000296801F839
:1045A0000B00A409ABF1010000F0FF0BBBF1000F01
:1045B000F0DC0398012804DD019820432968087085
:1045C00003E004F07F002968087029680398084414
:1045D0002860029804B0BDE8F09F0020FAE72DE9BA
:1045E000F84F80460C46A16820680844461CA16824
:1045F00020680844451C002000900027A16820681E
:10460000405C222800D0A6E04FF0000AD1460DE021
:1046100028785C2809D1681C2168401A61688842A2
:1046200000D398E009F101096D1C6D1C2068281A5F
:104630006168884202D228782228E9D12068281AA5
:104640006168884202D22878222800D083E0A168DD
:1046500020680844281AA0EB090A0AF10100216920
:104660008847074607B976E0009761E030785C2814
:1046700007D016F8010B009908700098401C0090B4
:1046800056E04FF00209A81B012800DA63E07078B9
:10469000662819D008DC222832D02F2832D05C2896
:1046A0002FD0622840D108E06E2814D0722819D08B
:1046B00074281ED0752837D12BE008200099087087
:1046C0000098401C009030E00C2000990870009881
:1046D000401C009029E00A20009908700098401CB6
:1046E000009022E00D20009908700098401C009076
:1046F0001BE00920009908700098401C009014E00D
:1047000000BF00BF7078009908700098401C0090AE
:104710000BE06A4629463046FFF7CBFE8146B9F1E9
:10472000000F00D117E000E015E000BF4E4400BFCD
:10473000AE429BD30020009908701020C8F80C00EE
:10474000C8F810702068281AA060A068401CA060FB
:104750000120BDE8F88F17B138466169884716B166
:104760002068301AA0600020F3E72DE9F0470746E3
:104770008A46002400260025A046A146BAF1000F73
:1047800002D10020BDE8F087F7B903215046FFF7BA
:1047900068FD06460EB90020F4E70AA1304603F092
:1047A000F0FF0120EEE700006E756C6C0000000069
:1047B00025312E3135670000256C670025312E31FB
:1047C00037670000222200003C4622E020780C28B7
:1047D00011D006DC08280DD009280FD00A2810D1E6
:1047E0000AE00D2809D0222802D05C2809D100E077
:1047F00000BF00BF00BF00BF00BF00BF09F101093B
:1048000005E02078202801DA09F1050900BF00BF82
:10481000641C20780028D9D1E01B00EB090808F1BE
:1048200003015046FFF71DFD06460EB90020A9E71B
:10483000B9F1000F0FD12220307042463946701C6A
:1048400003F066FF222108F1010031540021401CD1
:104850003154012096E722203070751C3C463DE023
:1048600020781F2808DD2078222805D020785C28B1
:1048700002D0207828702FE05C2005F8010B20780A
:104880000C2815D006DC08280FD0092819D00A28D2
:104890001AD110E00D2811D0222803D05C2813D1A2
:1048A000287018E02220287015E06220287012E09D
:1048B000662028700FE06E2028700CE072202870AF
:1048C00009E07420287006E02278FAA1284604F056
:1048D000A3FE2D1D00BF00BF641C6D1C20780028A6
:1048E000BED1222108F1010031540021401C315475
:1048F000012047E770B504460D4629462069FFF7B9
:1049000034FF70BD014609B1086808B9002070473E
:1049100002E08868401C886041B1D1E901209042E2
:1049200004D28A680868805C2028F2DDD1E9012081
:10493000904202D18868401E88600846E7E72DE96A
:10494000F04180460C4600270025E068B0F57A7FEC
:1049500002D30020BDE8F081E068401CE06044B173
:10496000D4E90110884204D2A1682068405C7B2809
:1049700000D07BE0A068401CA0602046FFF7C2FF8B
:104980004CB1D4E90110884205D2A1682068405C8E
:104990007D2800D15DE01CB1D4E90110884203D329
:1049A000A068401EA06061E0A068401EA06000BF3B
:1049B00004F11000FFF749FB064606B956E017B9A7
:1049C0003746354602E02E6075603546A068401CCB
:1049D000A0602046FFF796FF21462846FFF7FFFD1F
:1049E00000B943E02046FFF78DFF286928620020C8
:1049F000286144B1D4E90110884204D2A16820683A
:104A0000405C3A2800D031E0A068401CA0602046FD
:104A1000FFF778FF2146284600F0A8F800B925E006
:104A20002046FFF76FFF44B1D4E90110884204D259
:104A3000A1682068405C2C28BAD044B1D4E90110A8
:104A4000884204D2A1682068405C7D2800D00DE037
:104A500000BFE068401EE0604020C8F80C00C8F8C5
:104A60000870A068401CA060012073E717B13846A9
:104A7000FFF7F8FA00206DE72DE9F04107460C46F4
:104A80000026B046E068B0F57A7F02D30020BDE88A
:104A9000F081E068401CE060A1682068405C5B2811
:104AA00000D05DE0A068401CA0602046FFF72AFF10
:104AB0004CB1D4E90110884205D2A1682068405C5D
:104AC0005D2800D141E01CB1D4E90110884203D334
:104AD000A068401EA06043E0A068401EA06000BF28
:104AE00004F11000FFF7B1FA054605B938E016B930
:104AF0002E46A84604E0C8F80050C5F80480A84631
:104B0000A068401CA0602046FFF7FCFE21464046FE
:104B100000F02CF800B923E02046FFF7F3FE44B183
:104B2000D4E90110884204D2A1682068405C2C2896
:104B3000D6D044B1D4E90110884204D2A1682068DB
:104B4000405C5D2800D00BE000BFE068401EE060E4
:104B50002020F860BE60A068401CA060012096E79D
:104B600016B13046FFF77EFA002090E770B5054693
:104B70000C460CB1206808B9002070BDA4B1A06833
:104B8000001D616888420FD8A26821688818042235
:104B9000AFF2EC3103F0FEFD30B90420E860A0680C
:104BA000001DA0600120E8E79CB1A068401D61687D
:104BB00088420ED8A2682168881805223FA103F018
:104BC000E9FD30B90120E860A068401DA060012027
:104BD000D3E7ACB1A068001D6168884210D8A26814
:104BE00021688818042237A103F0D4FD40B90220BF
:104BF000E86001206861A068001DA0600120BCE79A
:104C00006CB1D4E90110884209D2A1682068405CE7
:104C1000222804D121462846FFF7E1FCADE7BCB1CC
:104C2000D4E90110884213D2A1682068405C2D2885
:104C300009D0A1682068405C302809DBA1682068A1
:104C4000405C392804DC21462846FFF73CFA94E70B
:104C50006CB1D4E90110884209D2A1682068405C97
:104C60005B2804D121462846FFF706FF85E76CB193
:104C7000D4E90110884209D2A1682068405C7B28F1
:104C800004D121462846FFF75AFE76E7002074E754
:104C90002DE9F0418AB004460D4617461C2103A8B1
:104CA00003F04FFD002600200849086048607CB9E9
:104CB00040E00000752530347800000066616C73B8
:104CC000650000007472756500000000C4000020DB
:104CD0000394204603F040FD401C04900020059002
:104CE000FE4A07CA07AB07C3FC48FFF7AEF9064602
:104CF00006B91FE003A8FFF705FE8046414630468F
:104D0000FFF734FF00B915E05FB103A8FFF7FAFD24
:104D1000DDE90410884203D205990398405C00B194
:104D200008E01DB1059903980844286030460AB090
:104D3000BDE8F08116B13046FFF794F9CCB101948B
:104D400000200290DDE90410884202D2059802900A
:104D500004E0049810B10498401E029025B1DDE9EA
:104D600001010844286003E0DD48DDE9011206C0C6
:104D700000BF0020DBE710B50446002211462046A4
:104D8000FFF786FF10BD2DE9F04781460C46002550
:104D90000026D9F8087014B90020BDE8F0876069D2
:104DA00008B1022000E001200646711C2046FFF7F2
:104DB00058FA05460DB90020EFE77B2005F8010BF6
:104DC000E068401CE060606910B10A2005F8010B42
:104DD000A0683044A06069E06069B8B12046E1682D
:104DE000FFF73FFA05460DB90020D6E74FF000085F
:104DF00004E0092005F8010B08F10108E0684045CE
:104E0000F7D8D4E902010844A06000BF2146386AFF
:104E1000FFF7ABFC08B90020BFE72046FFF777FAA1
:104E2000606908B1022000E00120064631462046B4
:104E3000FFF717FA05460DB90020AEE73A2005F84E
:104E4000010B606910B1092005F8010BA06830441E
:104E5000A0602146384600F0A9F808B900209CE778
:104E60002046FFF754FA606908B1012000E00020F5
:104E7000396809B1012100E000214618711C204663
:104E8000FFF7EFF905460DB9002086E7386810B145
:104E90002C2005F8010B606910B10A2005F8010B00
:104EA00000202870A0683044A0603F68002F93D194
:104EB000606910B1E068401C00E002200146204615
:104EC000FFF7CFF905460DB9002066E7606950B1DC
:104ED000002003E0092105F8011B401CE168491E80
:104EE0008142F7D800BF7D2005F8010B0020287013
:104EF000E068401EE06001204FE72DE9F0410746E1
:104F00000C460025A846BE6814B90020BDE8F08113
:104F100001212046FFF7A5F905460DB90020F5E768
:104F20005B202870A068401CA060E068401CE06026
:104F300028E02146304600F039F808B90020E5E7BE
:104F40002046FFF7E4F93068D8B1606908B1022063
:104F500000E00120804608F101012046FFF781F9B9
:104F600005460DB90020D1E72C2005F8010B60693A
:104F700010B1202005F8010B00202870A0684044E3
:104F8000A0603668002ED4D102212046FFF769F9CF
:104F900005460DB90020B9E75D2005F8010B00209A
:104FA0002870E068401EE0600120AFE72DE9F04185
:104FB00004460D46002604B115B90020BDE8F08175
:104FC000207B10285FD008DC01281CD0022829D0C3
:104FD000042809D0082865D133E0202858D040287B
:104FE0005BD080285ED131E005212846FFF739F9F2
:104FF00006460EB90020E1E7AFF65401304603F053
:10500000C0FB0120DAE706212846FFF72AF9064609
:105010000EB90020D2E7AFF25C31304603F0B1FBAD
:105020000120CBE705212846FFF71BF906460EB9FC
:105030000020C3E7AFF27431304603F0A2FB012039
:10504000BCE729462046FFF774F9B7E70027206937
:1050500030B9286910B9E969286888470020ADE7A8
:10506000206903F079FB471C39462846FFF7F9F819
:1050700006460EB90020A1E73A463046216903F002
:1050800047FB01209AE729462046FFF733FC95E7C6
:1050900029462046FFF731FF90E729462046FFF7D3
:1050A00072FE8BE7002089E7F0B589B007460E460F
:1050B000144600252421684603F043FB4FF480701A
:1050C0002168884700900596D4E901022168CDE95E
:1050D00007020691009828B936E00000CC000020B5
:1050E000C400002069463846FFF760FF00B92BE096
:1050F0006846FFF70CF9A06840B1DDE90001A2683D
:105100009047054600200090DDB91DE0029A501C32
:1051100021688847054605B916E0DDE90130401CE5
:10512000834201D2019801E00298401C02462846C1
:10513000009903F0EDFA0020029968540098616824
:105140008847284609B0F0BD009810B10098616802
:10515000884715B12846616888470020F2E710B5F6
:105160000446F74A01212046FFF79EFF10BD10B507
:105170000446F34A00212046FFF796FF10BD70B5A4
:105180008AB006460C461546242101A803F0D9FA38
:10519000002C02DA00200AB070BDE9480168204600
:1051A00088470190019808B90020F4E70294002094
:1051B000039005900695E24A07CA07AB07C301A909
:1051C0003046FFF7F3FE08B90020E4E70198E2E774
:1051D000F0B589B007460D4614461E4624216846A0
:1051E00003F0AFFA002C02DA002009B0F0BD009500
:1051F000019400200290012004900596D04A07CA2D
:1052000006AB07C369463846FFF7D0FEEDE7014617
:105210008A68002001E0401C1268002AFBD1704718
:1052200002460B4600210AB900207047916801E050
:105230005B1E096809B1002BFAD10846F5E770B585
:1052400005460C46002C01DA002070BD2146284698
:10525000FFF7E6FFF9E72DE9F04105460E46174650
:10526000002405B116B90020BDE8F081AC684FB14B
:1052700000E024687CB13046216A03F074FA00280B
:10528000F7D108E000E024682CB13046216AFEF72F
:1052900074FE0028F7D12046E6E770B504460D46B7
:1052A000002229462046FFF7D6FF70BD70B50446A0
:1052B0000D46012229462046FFF7CDFF70BD70B58F
:1052C00004460D4629462046FFF7E7FF08B10120B6
:1052D00070BD0020FCE701604860704770B505466E
:1052E0000E463046FEF7B1FE04460CB9002070BDF4
:1052F00028222946204603F00BFA00202062E068AD
:1053000040F48070E0600020606020602046EEE79E
:1053100070B504460E46002506B104B970BDA568F7
:105320000DB9A66008E000E02D6828680028FBD1D0
:1053300031462846FFF7CFFF00BFEFE770B50646BE
:105340000D46144604B970BDA08900F4007028B958
:10535000206A18B17A4A206A516888472562E06855
:1053600040F40070E06021463046FFF7D1FF00BFF7
:10537000E9E72DE9F04106460D46144670492846F6
:10538000FEF71FFE0746224639463046FFF7D6FF96
:10539000E06820F40070E060BDE8F08170B505467B
:1053A0000C4667492046FFF799FF064631462846D6
:1053B000FFF7AEFF70BD2DE9F04105460E461446DD
:1053C0005F492046FFF78AFF07463A46314628469E
:1053D000FFF7CFFFBDE8F081024602B109B9002016
:1053E0007047486810B1D1E900031860086810B12F
:1053F000D1E9003058609068884201D10868906017
:105400000020486008600846EAE770B505460C468B
:10541000002C01DA002070BD21462846FFF700FF6E
:10542000064631462846FFF7D7FFF4E770B5044635
:105430000D4629462046FFF7E8FF0646FEF712FE16
:1054400070BD70B504460D4629462046FFF725FF7E
:10545000064631462046FFF7BFFF70BD70B50446D3
:105460000D4629462046FFF721FF064631462046D5
:10547000FFF7B2FF70BD70B504460D4629462046C1
:10548000FFF7DFFF0646FEF7EDFD70BD70B5044681
:105490000D4629462046FFF7E1FF0646FEF7E2FDEE
:1054A00070BD2DE9F04106460F4614460025002F39
:1054B00001DABDE8F08139463046FFF7B1FE054616
:1054C00025B921463046FFF723FFF2E725606868DB
:1054D00060606C60B068A84201D1B46001E06068AF
:1054E000046000BFE5E770B506460D46144606B1F8
:1054F0000CB9002070BDAC4201D10120FAE7286848
:10550000206068686060206808B120684460606856
:1055100008B160680460B068A84200D1B46000209F
:10552000286068602846FEF79DFD0120E2E72DE92E
:10553000F04105460C461646002C03DABDE8F08122
:10554000CC00002021462846FFF76AFE0746324677
:1055500039462846FFF7C7FF00BFEFE710B50446FE
:10556000F74841682046884710BD2DE9F0410746BD
:105570000D4614461E4614B90020BDE8F081A089EE
:1055800000F4007020B9206A10B1206AFFF7E6FF2E
:10559000EB492846FEF715FD2062E06820F4007014
:1055A000E060324629463846FFF755FE80462246DF
:1055B00041463846FFF797FF0120DEE770B5044605
:1055C0000D4616460023324629462046FFF7CDFFFA
:1055D00070BD70B504460D46164601233246294675
:1055E0002046FFF7C2FF70BD10B5D548FEF72DFD70
:1055F00004460CB10420E060204610BD10B5D04830
:10560000FEF723FD04460CB10220E060204610BDE9
:1056100010B5CB48FEF719FD04460CB10120E0603F
:10562000204610BD70B50546C548FEF70EFD044680
:1056300024B10DB1022000E00120E060204670BDE1
:1056400010B52DED028BB0EE408AF0EE608ABC48BA
:10565000FEF7FBFC044614B30820E06084ED068BE3
:105660009FEDB80B53EC102B51EC180B03F024FBFF
:1056700003D86FF00040606111E09FEDB40B53EC74
:10568000102B51EC180B03F003FB03D84FF0004034
:10569000606104E051EC180B03F0C7FA606120462A
:1056A000BDEC028B10BD70B50546A548FEF7CDFCDC
:1056B00004466CB11020E060A1492846FEF781FC49
:1056C0002061206920B92046FEF7CCFC002070BD87
:1056D0002046FCE770B505469948FEF7B6FC04463F
:1056E0006CB18020E06096492846FEF76AFC206194
:1056F000206920B92046FEF7B5FC002070BD204689
:10570000FCE710B58E48FEF7A0FC04460CB1202043
:10571000E060204610BD10B58948FEF796FC0446AF
:105720000CB14020E060204610BD2DE9F0472DED82
:10573000028B80460E4600240025A1460027002E3D
:1057400004DA0020BDEC028BBDE8F087FFF7D9FF3B
:10575000074600241BE058F8240003F055FA41ECFA
:10576000180BB0EE480AF0EE680AFFF769FF05462D
:1057700025B93846FEF776FC0020E3E70CB9BD609A
:1057800003E029464846FFF7A6FDA946641C0FB171
:10579000B442E0D33846D5E72DE9F0472DED028B32
:1057A00080460E4600240025A1460027002E04DA7C
:1057B0000020BDEC028BBDE8F087FFF7A2FF074693
:1057C000002420E008EB840090ED000A10EE101A8F
:1057D000084603F049FA41EC180BB0EE480AF0EE27
:1057E000680AFFF72DFF054625B93846FEF73AFC53
:1057F0000020DEE70CB9BD6003E029464846FFF70C
:105800006AFDA946641C0FB1B442DBD33846D0E729
:105810002DE9F04780460E4600240025A1460027CA
:10582000002E02DA0020BDE8F087FFF76AFF074686
:10583000002419E008EBC40090ED001BB0EE410A13
:10584000F0EE610AFFF7FCFE054625B93846FEF783
:1058500009FC0020E7E70CB9BD6003E02946484693
:10586000FFF739FDA946641C0FB1B442E2D33846B4
:10587000D9E72DE9F04780460E4600240025A146D1
:105880000027002E02DA0020BDE8F087FFF739FF7D
:105890000746002413E058F82400FFF704FF0546EC
:1058A00025B93846FEF7DEFB0020EDE70CB9BD60F8
:1058B00003E029464846FFF70EFDA946641C0FB1D8
:1058C000B442E8D33846DFE72DE9F047044689467D
:1058D00000250027A846002604B952E01848FEF724
:1058E000B4FB054605B94CE0E06820F48070E86040
:1058F0006069686194ED060B85ED060B206938B18F
:105900000F492069FEF75DFB2861286900B938E07E
:10591000206A68B1A08900F4007008B1206A03E031
:105920000749206AFEF74DFB2862286A00B928E083
:10593000B9F1000F02D12846BDE8F087A7681CE046
:10594000CC0000200000C0FFFFFFDF41000000008E
:105950000000E0C101213846FFF7B6FF064606B950
:105960000FE0B8F1000F05D0C8F80060C6F8048059
:10597000B04601E0AE60B0463F68002FEAD128464D
:10598000DAE715B12846FEF76DFB0020D4E70146A3
:1059900055E00278202A01D1401C50E00278092A03
:1059A00001D1401C4BE002780D2A01D1401C46E099
:1059B00002780A2A01D1401C41E002782F2A0BD13B
:1059C00042782F2A08D100E0401C0278002A36D005
:1059D00002780A2A33D0F7E702782F2A0ED14278CC
:1059E0002A2A0BD100E0401C02782AB102782A2A28
:1059F000F9D142782F2AF6D1801C20E00278222AA1
:105A000019D110F8012B01F8012B0AE002785C2A69
:105A100003D110F8012B01F8012B10F8012B01F82C
:105A2000012B027812B10278222AEFD110F8012B53
:105A300001F8012B03E010F8012B01F8012B02788B
:105A4000002AA6D10A707047014609B900207047A4
:105A5000087B08B90120FAE70020F8E7014609B9F8
:105A600000207047087B012800D1FAE70020F8E702
:105A7000014609B900207047087B022801D10120A6
:105A8000F9E70020F7E7014609B900207047087BD5
:105A900000F0030008B10120F8E70020F6E7014616
:105AA00009B900207047087B042801D10120F9E7DB
:105AB0000020F7E7014609B900207047087B082855
:105AC00001D10120F9E70020F7E7014609B90020DC
:105AD0007047087B102801D10120F9E70020F7E783
